:0400000088EF00F095
:060008003882CEED08F085
:100018003880D8CF13F0E8CF14F0E0CF15F0FACF3E
:1000280016F0FBCF17F0E9CF18F0EACF19F0E1CFBF
:100038001AF0E2CF1BF0D9CF1CF0DACF1DF0F3CFC6
:100048001EF0F4CF1FF0F6CF20F0F7CF21F0F8CF55
:1000580022F0F5CF23F038C024F039C025F03AC09B
:1000680026F03BC027F0F2A413D0F294320E3618D3
:100078003710D8A403D0C286C28402D0C296C294D4
:10008800000E0001A06F010E9F6FC282300ED66E67
:10009800F0A006D0F090000E0001A86F010EA76F27
:1000A800F0A206D0F092000E0001A66F010EA56F17
:1000B80027C03BF026C03AF025C039F024C038F0FC
:1000C80023C0F5FF22C0F8FF21C0F7FF20C0F6FFCC
:1000D8001FC0F4FF1EC0F3FF1DC0DAFF1CC0D9FF0C
:1000E8001BC0E2FF1AC0E1FF19C0EAFF18C0E9FF10
:1000F80017C0FBFF16C0FAFF15C0E0FF14C0E8FFE9
:0C01080013C0D8FF3890100082EF0AF0FE
:1008000000547265663A0054656D703A0050573A6C
:1008100000250043000092869492949493809382E2
:10082000D08EF28EF28CC186C194C182C180C2800A
:10083000C198C19AC29AC298C08EC09AC088C09608
:10084000C084C092C0809D8C9E9C9F8CD58ED58C80
:10085000D59AD596D594D582D580F28AF294F19422
:10086000300ED66EF19EF086F090F09CF19AF088F2
:10087000F092F09EF198CA84CA822F0ECB6EBA868F
:10088000BA84BD86BD84BD92BD90000E0001BB6FD1
:10089000010EBA6F000EB96F010EB86F280E89EC09
:1008A00009F0010E03EC0BF00C0E03EC0BF00D0E37
:1008B0000001926FFB0EE82EFED7922FFCD700D0DE
:1008C0000001A751A811D8B411D0000EA86F000ED6
:1008D000A76FB35107E1320EB25DD8B003D0B24B6F
:1008E000B32B04D0000EB36F320EB26FA551A61118
:1008F000D8B412D0000EA66F000EA56FB35104E15C
:10090000240EB25DD8A004D0B207D8A0B30704D09B
:10091000000EB36F230EB26FA151A211D8B428D02C
:10092000000EA26F000EA16FC450936F926BC35064
:100930009225AB6F000E9321AC6FABC030F0ACC012
:1009400031F06CEC0BF030C060F031C061F032C0BF
:1009500062F03F0E0001636FFA0E646F3E0E656F2A
:10096000DFEC07F060C09AF061C09BF062C09CF0C1
:1009700000019D519E11D8B43FD0000E9E6F000E15
:100980009D6FC450936F926BC3509225A96F000E58
:100990009321AA6F3C0E636FF00E646F3C0E656F7F
:1009A000A9C030F0AAC031F06CEC0BF030C060F0A0
:1009B00031C061F032C062F0DFEC07F060C06CF073
:1009C00061C06DF062C06EF0000E00016F6F8C0EA2
:1009D000706F420E716F8CEC06F06CC0AFF06DC0A2
:1009E000B0F06EC0B1F0000E0001B96F010EB86F2B
:1009F000000EA46F010EA36FB851B911D8B451D035
:100A0000000EB96F000EB86F000E6F6FC80E706FDA
:100A1000420E716F000E636F400E646F430E656F80
:100A2000AFC060F0B0C061F0B1C062F0DFEC07F0C1
:100A300060C06CF061C06DF062C06EF05AEC08F0FE
:100A40006CC07BF06DC07CF06EC07DF063EC07F095
:100A50007BC094F07CC095F094C092F095C093F068
:100A600000019335933392339335933392339251FC
:100A7000BB6E95359531936F9431926F010E92173D
:100A8000923B9247BA509219DF0B9219BA6E94C0FA
:100A900092F0010E9217923BBA509219EF0B9219F5
:100AA000BA6EBA51BB11D8B441D0000EBB6F000E64
:100AB000BA6FB6C028F0B7C029F0000E2B6EC00E7A
:100AC0002A6E59EC0BF028C02EF029C02FF0000E32
:100AD000316E640E306E59EC0AF02EC096F02FC0C5
:100AE00097F096C092F097C093F00001933593333E
:100AF00092339335933392339251BE6E973597313B
:100B0000936F9631926F010E9217923B9247BD50B0
:100B10009219DF0B9219BD6E96C092F0010E9217DA
:100B2000923BBD509219EF0B9219BD6E9F51A011CF
:100B3000D8B457D0000EA06F000E9F6F9AC06FF010
:100B40009BC070F09CC071F0B2C030F0B3C031F007
:100B50006CEC0BF030C033F031C034F032C035F003
:100B60007EEC0BF033C06CF034C06DF035C06EF02D
:100B70008CEC06F06CC07BF06DC07CF06EC07DF03C
:100B800063EC07F07BC098F07CC099F098C028F027
:100B900099C029F0B4C02AF0B5C02BF059EC0BF085
:100BA00028C0ADF029C0AEF0000199BF0BD099511B
:100BB00003E19805D8A006D0140EAD25B66F000E3F
:100BC000AE21B76F99BF05D0995107E19805D8B00C
:100BD00004D0000EB76F140EB66F000EBB6F010E7F
:100BE000BA6FA351A411D8B46BD6000EA46F000E37
:100BF000A36F800E03EC0BF0010E296E080E2A6E17
:100C00003FEC0BF0B2C02EF0B3C02FF0000E316EEF
:100C10000A0E306E59EC0AF02E50300FE4EC0AF058
:100C2000B2C028F0B3C029F0000E2B6E0A0E2A6E57
:100C3000A3EC0AF02850300FE4EC0AF0C00E03ECED
:100C40000BF0880E03EC0BF00D0E296E080E2A6EC9
:100C50003FEC0BF0B6C02EF0B7C02FF0000E316E97
:100C60000A0E306E59EC0AF02E50300FE4EC0AF008
:100C7000B6C028F0B7C029F0000E2B6E0A0E2A6EFF
:100C8000A3EC0AF02850300FE4EC0AF0110E296EA4
:100C9000080E2A6E3FEC0BF0C00E03EC0BF0070EB3
:100CA000296E080E2A6E3FEC0BF09AC07BF09BC0B9
:100CB0007CF09CC07DF063EC07F07BC08AF07CC0C8
:100CC0008BF0000E00018D6F0A0E8C6FDDEC09F0C9
:100CD00000018A51300FE4EC0AF09AC07BF09BC00F
:100CE0007CF09CC07DF063EC07F07BC08AF07CC098
:100CF0008BF0000E00018D6F0A0E8C6F20EC0AF055
:100D000000018A51300FE4EC0AF0130E296E080E30
:100D10002A6E3FEC0BF0D4D56EC072F00001736BFD
:100D2000746B6D35723701E373817251776F71C0E7
:100D300072F0736B746B7035723701E373817251AB
:100D4000766F7751D8B40BD07651775DD8B00ED08E
:100D5000775100087625726F180E726507D06FC044
:100D60006CF070C06DF071C06EF012007651D8B4A6
:100D70000BD07751765DD8B00ED07651000877252C
:100D8000726F180E726507D06CC06CF06DC06DF09C
:100D90006EC06EF01200060E756F6EBF758F71BF5C
:100DA000758D6D8FFF0E6C17FF0E6D17000E6E1791
:100DB000708FFF0E6F17FF0E7017000E71177651B0
:100DC000775DD8B01BD0D8906F3770377137760702
:100DD00077517619D8B40DD0750775C072F0070E2B
:100DE0007217D8B406D0EFD7D8906E336D336C330A
:100DF000772B76517719D8B41FD0F6D77751765D17
:100E0000D8B01AD0D8906C376D376E3777077751D6
:100E10007619D8B40DD0750775C072F0070E721729
:100E2000D8B406D0EFD7D890713370336F33762BA8
:100E300076517719D8A4F7D775AF0CD0FF0E6C1B7D
:100E4000FF0E6D1BFF0E6E1B010E6C27000E6D2337
:100E5000000E6E2375AD0CD0FF0E6F1BFF0E701BC6
:100E6000FF0E711B010E6F27000E7023000E712301
:100E7000000E756F6C516F276D5170236E51712389
:100E800071AF0ED0FF0E6F1BFF0E701BFF0E711B9C
:100E9000010E6F27000E7023000E7123010E756F77
:100EA0006FC028F070C029F071C02AF077C02BF015
:100EB00075C02CF032EC09F028C06CF029C06DF040
:100EC0002AC06EF012007DC07FF00001806B816B44
:100ED0007C357F3701E380817F51896F8951D8A4A8
:100EE00009D0000E7B6F000E7C6F000E7D6F000E30
:100EF0007E6F1200170E7F6F7BC080F07CC081F088
:100F00007DC082F07F29836F04D0D89082338133F3
:100F10008033832FFAD700018051846F7C8FFF0EBE
:100F20007B17FF0E7C17000E7D177B51856F7C5160
:100F3000866F7D51876F886B8E0E895F89AF16D063
:100F40008951800A8F0FD8B009D0000E7B6F000E38
:100F50007C6F000E7D6F000E7E6F1200D89088337C
:100F6000873386338533893FF9D715D0170E8965C6
:100F70000FD0000E7B6F000E7C6F000E7D6F000E99
:100F80007E6F1200D8908537863787378837890774
:100F90008951D8A4F7D78451D8B408D0881F871FA7
:100FA000861F856D000E86238723882385C07BF0EE
:100FB00086C07CF087C07DF088C07EF0120062C0E1
:100FC00033F0346A356A00016135333601E3348029
:100FD0003350666F6651D8A407D0000E606F000EC4
:100FE000616F000E626F120065C033F0346A356ABB
:100FF0006435333601E3348033506B6F6B51D8A4C2
:1010000007D0000E606F000E616F000E626F12005D
:101010006B517B0F662762C06BF065516B1B800EB6
:101020006B17618F648FFF0E6317FF0E6417000E3E
:101030006517000E676F000E686F000E696F070E70
:101040006A6F60A106D063516727645168236551B8
:101050006923D890623361336033D8906337643743
:1010600065376A2FEED7090E6A6F60A106D063510B
:1010700067276451682365516923D89062336133CF
:101080006033D8906933683367336A2FEED767C00F
:1010900028F068C029F069C02AF066C02BF06BC048
:1010A0002CF032EC09F028C060F029C061F02AC0B1
:1010B00062F012006EC072F00001736B746B6D35DC
:1010C000723701E373817251796F7951D8A407D0D7
:1010D000000E6C6F000E6D6F000E6E6F120071C00F
:1010E00072F0736B746B7035723701E373817251F8
:1010F0007A6F7A51D8A407D0000E6C6F000E6D6F16
:10110000000E6E6F1200000E766F000E776F000EED
:10111000786F7A51890F795F6EC07AF071517A1BBE
:10112000800E7A176D8FFF0E6C17FF0E6D17000E75
:101130006E17708FFF0E6F17FF0E7017000E71176E
:10114000180E756FD8907637773778376F516C5D9A
:1011500070516D5971516E59D8A007D06F516C5FA5
:1011600070516D5B71516E5B7681D8906C376D37C5
:101170006E37752FE7D776C028F077C029F078C092
:101180002AF079C02BF07AC02CF032EC09F028C09C
:101190006CF029C06DF02AC06EF012000600FACF84
:1011A00001F0FBCF02F0E9CF03F0EACF04F0E1CF8A
:1011B00005F0E2CF06F0D9CF07F0DACF08F0F3CF91
:1011C00009F0F4CF0AF0F6CF0BF0F7CF0CF0F8CF20
:1011D0000DF0F5CF0EF038C00FF039C010F03AC066
:1011E00011F03BC012F09EAC17D09E9C320E361808
:1011F0003710D8A40AD0000E376E000E366E000EDF
:1012000000019E6F010E9D6F07D0364A372A000EEF
:101210000001A26F010EA16F12C03BF011C03AF0A5
:1012200010C039F00FC038F00EC0F5FF0DC0F8FF48
:101230000CC0F7FF0BC0F6FF0AC0F4FF09C0F3FFB4
:1012400008C0DAFF07C0D9FF06C0E2FF05C0E1FF12
:1012500004C0EAFF03C0E9FF02C0FBFF01C0FAFFC0
:10126000389211002B50D8B405D0285029102A10DC
:10127000D8A40CD0000E286E000E296E000E2A6E27
:1012800012002B2AD8902A3229322832000E281434
:101290002D6E000E29142E6EFE0E2A142F6E2D5068
:1012A0002E102F10D8B40CD0ECD72B2A010E2826E4
:1012B000000E2922000E2A22D8902A322932283202
:1012C000000E28142D6E000E29142E6EFF0E2A1407
:1012D0002F6E2D502E102F10D8B406D0E6D72B0627
:1012E000D890283629362A3629BE03D0020E2B6024
:1012F000F6D72BA0299ED8902B322B502A122C5097
:10130000D8A42A8E28C028F029C029F02AC02AF0A3
:101310001200296E0F0E83160F0E95169694969056
:1013200096928D948D908D9299EC0BF0300E03EC8B
:101330000BF090EC0BF090EC0BF0300E03EC0BF09C
:1013400090EC0BF090EC0BF0320E03EC0BF022EC77
:101350000BF00009D8A4FBD722EC0BF00009D8A4AD
:10136000FBD7295003EC0BF022EC0BF00009D8A4BA
:10137000FBD7080E03EC0BF022EC0BF00009D8A40D
:10138000FBD70F0E03EC0BF022EC0BF00009D8A4F6
:10139000FBD7010E03EC0BF022EC0BF00009D8A4F4
:1013A000FBD7040E03EC0BF022EC0BF00009D8A4E1
:1013B000FBD7800EC4EC0AF01200000E00018F6F04
:1013C0008DAF06D08C6D8D1FD8B08D2B010E8F6F19
:1013D0008BAF06D08A6D8B1FD8B08B2B010E8F1B65
:1013E000000E916F000E906F8C518D11D8B41CD0EF
:1013F000010E8E6F04D0D8908C378D378E2B8DAF29
:10140000FAD7D890903791378C518A5D8D518B598E
:10141000D8A005D08C518A5F8D518B5B9081D8907C
:101420008D338C338E2FEDD78F51D8B404D0906D7F
:10143000911FD8B0912B90C08AF091C08BF0120010
:10144000000E00018F6F8BAF06D08A6D8B1FD8B056
:101450008B2B010E8F6F8DAF04D08C6D8D1FD8B08C
:101460008D2B8C518D11D8B418D0010E8E6F04D0F5
:10147000D8908C378D378E2B8DAFFAD78C518A5DF3
:101480008D518B59D8A004D08C518A5F8D518B5BC4
:10149000D8908D338C338E2FF1D78F51D8B404D0A0
:1014A0008A6D8B1FD8B08B2B8AC08AF08BC08BF0D3
:1014B0001200000E336E000E326E30503110D8B470
:1014C0001CD0010E346E04D0D89030363136342A18
:1014D00031AEFAD7D8903236333630502E5C315098
:1014E0002F58D8A005D030502E5E31502F5A328060
:1014F000D89031323032342EEDD732C02EF033C096
:101500002FF012004C0EF66E170EF76E000EF86EEE
:1015100000EEB2F010EE06F00900F5CFEEFFE55058
:10152000E150FAE100EE9AF0180EEE6AE806FDE1ED
:10153000376A366A38903892000EF86E080EF76EE9
:1015400000010BEF04F02A502B10D8B418D0010E74
:101550002C6E04D0D8902A362B362C2A2BAEFAD7F4
:101560002A50285C2B502958D8A004D02A50285E35
:101570002B50295AD8902B322A322C2EF1D728C042
:1015800028F029C029F01200286E0F0E95160F0EB4
:10159000831628508009F00B83128D948D90A1EC56
:1015A0000BF08D82A1EC0BF08D920F0E8316283874
:1015B000F00BF00B8312A1EC0BF08D82A1EC0BF081
:1015C0008D92F00E95121200286E0F0E95160F0ECA
:1015D00083162850F00B83128D808D94A1EC0BF0B4
:1015E0008D82A1EC0BF08D920F0E83162838F00B34
:1015F000F00B8312A1EC0BF08D82A1EC0BF08D921D
:10160000F00E95121200286E0F0E95160F0E83160F
:101610002850F00B83128D948D90A1EC0BF08D82ED
:10162000A1EC0BF08D920F0E83162838F00BF00B07
:101630008312A1EC0BF08D82A1EC0BF08D92F00ED9
:10164000951212008D848D90A1EC0BF08D82A1EC8F
:101650000BF083AE0AD08D92A1EC0BF08D82A1EC41
:101660000BF08D928D94010E12008D92A1EC0BF077
:101670008D82A1EC0BF08D928D94000E12000FD094
:1016800022EC0BF00009D8A4FBD729C0F6FF2AC032
:10169000F7FF0800F550E4EC0AF0294A2A2A29C08D
:1016A000F6FF2AC0F7FF0800F5500009D8B4120071
:1016B000E7D728502A02F3CF2CF0F4CF2DF0285092
:1016C0002B02F3502D2629502A02F3502D262CC030
:1016D00028F02DC029F0120030C028F031C029F0C8
:1016E0002A6A8E0E2B6E000E2C6E32EC09F028C08A
:1016F00030F029C031F02AC032F0120033503410DB
:101700003510D8B406D0000E331A000E341A800EED
:10171000351A33C033F034C034F035C035F0120020
:10172000210E286E760EE82EFED7282EFCD700D08C
:101730001200620E286E660EE82EFED7282EFCD709
:101740001200210EE82EFED700F012002300050043
:02175000640033
:020000040020DA
:08000000FFFFFFFFFFFFFFFF00
:020000040030CA
:0E000000040C1F1EFF8101FF0FC00FE00F4018
:00000001FF
